{
  "_format": "hh-sol-artifact-1",
  "contractName": "HierarchicalAccessControl",
  "sourceName": "contracts/HierarchicalAccessControl.sol",
  "abi": [
    {
      "anonymous": false,
      "inputs": [
        {
          "indexed": true,
          "internalType": "address",
          "name": "from",
          "type": "address"
        },
        {
          "indexed": true,
          "internalType": "address",
          "name": "to",
          "type": "address"
        },
        {
          "indexed": false,
          "internalType": "uint64",
          "name": "version",
          "type": "uint64"
        },
        {
          "indexed": false,
          "internalType": "uint256",
          "name": "timestamp",
          "type": "uint256"
        }
      ],
      "name": "EdgeDeleted",
      "type": "event"
    },
    {
      "anonymous": false,
      "inputs": [
        {
          "indexed": true,
          "internalType": "address",
          "name": "from",
          "type": "address"
        },
        {
          "indexed": true,
          "internalType": "address",
          "name": "to",
          "type": "address"
        },
        {
          "indexed": false,
          "internalType": "bytes",
          "name": "enc_pk_to",
          "type": "bytes"
        },
        {
          "indexed": false,
          "internalType": "bytes",
          "name": "e_under",
          "type": "bytes"
        },
        {
          "indexed": false,
          "internalType": "uint64",
          "name": "version",
          "type": "uint64"
        },
        {
          "indexed": false,
          "internalType": "uint256",
          "name": "timestamp",
          "type": "uint256"
        }
      ],
      "name": "EdgePublished",
      "type": "event"
    },
    {
      "anonymous": false,
      "inputs": [
        {
          "indexed": true,
          "internalType": "address",
          "name": "who",
          "type": "address"
        },
        {
          "indexed": false,
          "internalType": "bytes",
          "name": "pubKey",
          "type": "bytes"
        },
        {
          "indexed": false,
          "internalType": "uint256",
          "name": "timestamp",
          "type": "uint256"
        }
      ],
      "name": "KeyRegistered",
      "type": "event"
    },
    {
      "anonymous": false,
      "inputs": [
        {
          "indexed": true,
          "internalType": "address",
          "name": "who",
          "type": "address"
        },
        {
          "indexed": false,
          "internalType": "bytes",
          "name": "newPubKey",
          "type": "bytes"
        },
        {
          "indexed": false,
          "internalType": "uint64",
          "name": "newVersion",
          "type": "uint64"
        },
        {
          "indexed": false,
          "internalType": "uint256",
          "name": "timestamp",
          "type": "uint256"
        }
      ],
      "name": "KeyRotated",
      "type": "event"
    },
    {
      "inputs": [
        {
          "internalType": "address",
          "name": "to",
          "type": "address"
        },
        {
          "internalType": "uint64",
          "name": "version",
          "type": "uint64"
        }
      ],
      "name": "deleteEdge",
      "outputs": [],
      "stateMutability": "nonpayable",
      "type": "function"
    },
    {
      "inputs": [
        {
          "internalType": "address",
          "name": "from",
          "type": "address"
        },
        {
          "internalType": "address",
          "name": "to",
          "type": "address"
        },
        {
          "internalType": "uint256",
          "name": "index",
          "type": "uint256"
        }
      ],
      "name": "getEdgeByIndex",
      "outputs": [
        {
          "internalType": "address",
          "name": "from_",
          "type": "address"
        },
        {
          "internalType": "address",
          "name": "to_",
          "type": "address"
        },
        {
          "internalType": "bytes",
          "name": "enc_pk_to",
          "type": "bytes"
        },
        {
          "internalType": "bytes",
          "name": "e_under",
          "type": "bytes"
        },
        {
          "internalType": "uint64",
          "name": "version",
          "type": "uint64"
        },
        {
          "internalType": "uint256",
          "name": "timestamp",
          "type": "uint256"
        },
        {
          "internalType": "bool",
          "name": "deleted",
          "type": "bool"
        }
      ],
      "stateMutability": "view",
      "type": "function"
    },
    {
      "inputs": [
        {
          "internalType": "address",
          "name": "from",
          "type": "address"
        },
        {
          "internalType": "address",
          "name": "to",
          "type": "address"
        }
      ],
      "name": "getEdgeCount",
      "outputs": [
        {
          "internalType": "uint256",
          "name": "",
          "type": "uint256"
        }
      ],
      "stateMutability": "view",
      "type": "function"
    },
    {
      "inputs": [
        {
          "internalType": "address",
          "name": "from",
          "type": "address"
        },
        {
          "internalType": "address",
          "name": "to",
          "type": "address"
        }
      ],
      "name": "getLatestEdge",
      "outputs": [
        {
          "internalType": "address",
          "name": "from_",
          "type": "address"
        },
        {
          "internalType": "address",
          "name": "to_",
          "type": "address"
        },
        {
          "internalType": "bytes",
          "name": "enc_pk_to",
          "type": "bytes"
        },
        {
          "internalType": "bytes",
          "name": "e_under",
          "type": "bytes"
        },
        {
          "internalType": "uint64",
          "name": "version",
          "type": "uint64"
        },
        {
          "internalType": "uint256",
          "name": "timestamp",
          "type": "uint256"
        },
        {
          "internalType": "bool",
          "name": "deleted",
          "type": "bool"
        }
      ],
      "stateMutability": "view",
      "type": "function"
    },
    {
      "inputs": [
        {
          "internalType": "address",
          "name": "who",
          "type": "address"
        }
      ],
      "name": "getPubKey",
      "outputs": [
        {
          "internalType": "bytes",
          "name": "",
          "type": "bytes"
        }
      ],
      "stateMutability": "view",
      "type": "function"
    },
    {
      "inputs": [
        {
          "internalType": "address",
          "name": "who",
          "type": "address"
        }
      ],
      "name": "hasPubKey",
      "outputs": [
        {
          "internalType": "bool",
          "name": "exists",
          "type": "bool"
        }
      ],
      "stateMutability": "view",
      "type": "function"
    },
    {
      "inputs": [
        {
          "internalType": "address",
          "name": "",
          "type": "address"
        }
      ],
      "name": "pubKeys",
      "outputs": [
        {
          "internalType": "bytes",
          "name": "",
          "type": "bytes"
        }
      ],
      "stateMutability": "view",
      "type": "function"
    },
    {
      "inputs": [
        {
          "internalType": "address",
          "name": "to",
          "type": "address"
        },
        {
          "internalType": "bytes",
          "name": "enc_pk_to",
          "type": "bytes"
        },
        {
          "internalType": "bytes",
          "name": "e_under",
          "type": "bytes"
        },
        {
          "internalType": "uint64",
          "name": "version",
          "type": "uint64"
        }
      ],
      "name": "publishEdge",
      "outputs": [],
      "stateMutability": "nonpayable",
      "type": "function"
    },
    {
      "inputs": [
        {
          "internalType": "bytes",
          "name": "pubKey",
          "type": "bytes"
        }
      ],
      "name": "registerPublicKey",
      "outputs": [],
      "stateMutability": "nonpayable",
      "type": "function"
    },
    {
      "inputs": [
        {
          "internalType": "bytes",
          "name": "newPubKey",
          "type": "bytes"
        },
        {
          "internalType": "uint64",
          "name": "newVersion",
          "type": "uint64"
        }
      ],
      "name": "rotateKey",
      "outputs": [],
      "stateMutability": "nonpayable",
      "type": "function"
    }
  ],
  "bytecode": "0x608060405234801561001057600080fd5b5061156d806100206000396000f3fe608060405234801561001057600080fd5b506004361061009e5760003560e01c80639d6f4531116100665780639d6f45311461012e578063a79e430a14610141578063d1b8b4bf14610164578063e11b73d014610184578063fce9512a1461019757600080fd5b806305e34d84146100a35780630d93dc3a146100d25780636ef40481146100e5578063856235941461010657806398baf8061461011b575b600080fd5b6100b66100b1366004610f01565b6101aa565b6040516100c99796959493929190610f7a565b60405180910390f35b6100b66100e0366004610fe3565b6103e5565b6100f86100f3366004610f01565b610614565b6040519081526020016100c9565b610119610114366004611067565b610641565b005b6101196101293660046110bf565b6106e1565b61011961013c366004611112565b610787565b61015461014f3660046111a1565b610abe565b60405190151581526020016100c9565b6101776101723660046111a1565b610aee565b6040516100c991906111c3565b6101196101923660046111d6565b610b88565b6101776101a53660046111a1565b610e39565b6001600160a01b038083166000908152600160209081526040808320938516835292905290812054819060609081908390819081908061021b5760405162461bcd60e51b81526020600482015260076024820152666e6f2d6564676560c81b60448201526064015b60405180910390fd5b6001600160a01b03808b166000908152600160208181526040808420948e168452939052918120909161024e9084611216565b8154811061025e5761025e611229565b60009182526020909120600790910201805460018201546004830154600584015460068501546002860180549697506001600160a01b0395861696959094169460038801936001600160401b0316929160ff169085906102bd9061123f565b80601f01602080910402602001604051908101604052809291908181526020018280546102e99061123f565b80156103365780601f1061030b57610100808354040283529160200191610336565b820191906000526020600020905b81548152906001019060200180831161031957829003601f168201915b505050505094508380546103499061123f565b80601f01602080910402602001604051908101604052809291908181526020018280546103759061123f565b80156103c25780601f10610397576101008083540402835291602001916103c2565b820191906000526020600020905b8154815290600101906020018083116103a557829003601f168201915b505050505093509850985098509850985098509850505092959891949750929550565b6001600160a01b0380841660009081526001602090815260408083209386168352929052908120548190606090819083908190819088106104545760405162461bcd60e51b815260206004820152600960248201526834b73232bc16b7b7b160b91b6044820152606401610212565b6001600160a01b03808b166000908152600160209081526040808320938d16835292905290812080548a90811061048d5761048d611229565b60009182526020909120600790910201805460018201546004830154600584015460068501546002860180549697506001600160a01b0395861696959094169460038801936001600160401b0316929160ff169085906104ec9061123f565b80601f01602080910402602001604051908101604052809291908181526020018280546105189061123f565b80156105655780601f1061053a57610100808354040283529160200191610565565b820191906000526020600020905b81548152906001019060200180831161054857829003601f168201915b505050505094508380546105789061123f565b80601f01602080910402602001604051908101604052809291908181526020018280546105a49061123f565b80156105f15780601f106105c6576101008083540402835291602001916105f1565b820191906000526020600020905b8154815290600101906020018083116105d457829003601f168201915b505050505093509750975097509750975097509750509397509397509397909450565b6001600160a01b038083166000908152600160209081526040808320938516835292905220545b92915050565b8061067d5760405162461bcd60e51b815260206004820152600c60248201526b7075624b65792d656d70747960a01b6044820152606401610212565b3360009081526020819052604090206106978284836112de565b50336001600160a01b03167f523bf083cfe237e559164ffb7d2ebfb798c210ca27f5dcc1e92eead723840a208383426040516106d5939291906113c7565b60405180910390a25050565b816107205760405162461bcd60e51b815260206004820152600f60248201526e6e65775075624b65792d656d70747960881b6044820152606401610212565b33600090815260208190526040902061073a8385836112de565b50336001600160a01b03167fae30c81930693d5ae00614a5c795b3f7ab1b0fbe3e8f5b909ee89ff3d43336278484844260405161077a94939291906113eb565b60405180910390a2505050565b6001600160a01b0386166107c75760405162461bcd60e51b8152602060048201526007602482015266746f2d7a65726f60c81b6044820152606401610212565b836108065760405162461bcd60e51b815260206004820152600f60248201526e656e635f706b5f746f2d656d70747960881b6044820152606401610212565b816108435760405162461bcd60e51b815260206004820152600d60248201526c655f756e6465722d656d70747960981b6044820152606401610212565b61084c86610abe565b6108875760405162461bcd60e51b815260206004820152600c60248201526b746f2d6e6f2d7075626b657960a01b6044820152606401610212565b61089033610abe565b6108cd5760405162461bcd60e51b815260206004820152600e60248201526d66726f6d2d6e6f2d7075626b657960901b6044820152606401610212565b60006040518060e00160405280336001600160a01b03168152602001886001600160a01b0316815260200187878080601f016020809104026020016040519081016040528093929190818152602001838380828437600092019190915250505090825250604080516020601f88018190048102820181019092528681529181019190879087908190840183828082843760009201829052509385525050506001600160401b03851660208084019190915242604080850191909152606090930182905233825260018082528383206001600160a01b038d811685529083528484208054808401825590855293839020865160079095020180549482166001600160a01b03199586161781559286015191830180549290911691909316179091559082015191925082916002820190610a05908261141b565b5060608201516003820190610a1a908261141b565b50608082015160048201805467ffffffffffffffff19166001600160401b0390921691909117905560a0820151600582015560c0909101516006909101805460ff19169115159190911790556040516001600160a01b0388169033907f5c59be140734270df2c28442b3b1d75957cdb4ba8d38ab8a8a5b2835b4dcbba690610aad908a908a908a908a908a9042906114da565b60405180910390a350505050505050565b6001600160a01b03811660009081526020819052604081208054829190610ae49061123f565b9050119050919050565b60006020819052908152604090208054610b079061123f565b80601f0160208091040260200160405190810160405280929190818152602001828054610b339061123f565b8015610b805780601f10610b5557610100808354040283529160200191610b80565b820191906000526020600020905b815481529060010190602001808311610b6357829003601f168201915b505050505081565b6001600160a01b038216610bc85760405162461bcd60e51b8152602060048201526007602482015266746f2d7a65726f60c81b6044820152606401610212565b3360009081526001602090815260408083206001600160a01b038616845290915290208054610c235760405162461bcd60e51b81526020600482015260076024820152666e6f2d6564676560c81b6044820152606401610212565b60008067fffffffffffffffe196001600160401b03851601610c80578254610c4d90600190611216565b9150828281548110610c6157610c61611229565b600091825260209091206006600790920201015460ff16159050610d1f565b82545b8015610d1d576000610c96600183611216565b9050856001600160401b0316858281548110610cb457610cb4611229565b60009182526020909120600460079092020101546001600160401b031603610d0c57809350848181548110610ceb57610ceb611229565b600091825260209091206006600790920201015460ff16159250610d1d9050565b50610d1681611520565b9050610c83565b505b80610d785760405162461bcd60e51b8152602060048201526024808201527f76657273696f6e2d6e6f742d666f756e642d6f722d616c72656164792d64656c604482015263195d195960e21b6064820152608401610212565b6001838381548110610d8c57610d8c611229565b906000526020600020906007020160060160006101000a81548160ff021916908315150217905550846001600160a01b0316336001600160a01b03167f57213a9eceb92bafef99dc568ab2282be655aea43c64e34c58e9ae7cc57901ba858581548110610dfb57610dfb611229565b600091825260209182902060079091020160040154604080516001600160401b03909216825242928201929092520160405180910390a35050505050565b6001600160a01b0381166000908152602081905260409020805460609190610e609061123f565b80601f0160208091040260200160405190810160405280929190818152602001828054610e8c9061123f565b8015610ed95780601f10610eae57610100808354040283529160200191610ed9565b820191906000526020600020905b815481529060010190602001808311610ebc57829003601f168201915b50505050509050919050565b80356001600160a01b0381168114610efc57600080fd5b919050565b60008060408385031215610f1457600080fd5b610f1d83610ee5565b9150610f2b60208401610ee5565b90509250929050565b6000815180845260005b81811015610f5a57602081850181015186830182015201610f3e565b506000602082860101526020601f19601f83011685010191505092915050565b6001600160a01b0388811682528716602082015260e060408201819052600090610fa690830188610f34565b8281036060840152610fb88188610f34565b6001600160401b03969096166080840152505060a0810192909252151560c090910152949350505050565b600080600060608486031215610ff857600080fd5b61100184610ee5565b925061100f60208501610ee5565b9150604084013590509250925092565b60008083601f84011261103157600080fd5b5081356001600160401b0381111561104857600080fd5b60208301915083602082850101111561106057600080fd5b9250929050565b6000806020838503121561107a57600080fd5b82356001600160401b0381111561109057600080fd5b61109c8582860161101f565b90969095509350505050565b80356001600160401b0381168114610efc57600080fd5b6000806000604084860312156110d457600080fd5b83356001600160401b038111156110ea57600080fd5b6110f68682870161101f565b90945092506111099050602085016110a8565b90509250925092565b6000806000806000806080878903121561112b57600080fd5b61113487610ee5565b955060208701356001600160401b038082111561115057600080fd5b61115c8a838b0161101f565b9097509550604089013591508082111561117557600080fd5b5061118289828a0161101f565b90945092506111959050606088016110a8565b90509295509295509295565b6000602082840312156111b357600080fd5b6111bc82610ee5565b9392505050565b6020815260006111bc6020830184610f34565b600080604083850312156111e957600080fd5b6111f283610ee5565b9150610f2b602084016110a8565b634e487b7160e01b600052601160045260246000fd5b8181038181111561063b5761063b611200565b634e487b7160e01b600052603260045260246000fd5b600181811c9082168061125357607f821691505b60208210810361127357634e487b7160e01b600052602260045260246000fd5b50919050565b634e487b7160e01b600052604160045260246000fd5b601f8211156112d957600081815260208120601f850160051c810160208610156112b65750805b601f850160051c820191505b818110156112d5578281556001016112c2565b5050505b505050565b6001600160401b038311156112f5576112f5611279565b61130983611303835461123f565b8361128f565b6000601f84116001811461133d57600085156113255750838201355b600019600387901b1c1916600186901b178355611397565b600083815260209020601f19861690835b8281101561136e578685013582556020948501946001909201910161134e565b508682101561138b5760001960f88860031b161c19848701351681555b505060018560011b0183555b5050505050565b81835281816020850137506000828201602090810191909152601f909101601f19169091010190565b6040815260006113db60408301858761139e565b9050826020830152949350505050565b6060815260006113ff60608301868861139e565b6001600160401b03949094166020830152506040015292915050565b81516001600160401b0381111561143457611434611279565b61144881611442845461123f565b8461128f565b602080601f83116001811461147d57600084156114655750858301515b600019600386901b1c1916600185901b1785556112d5565b600085815260208120601f198616915b828110156114ac5788860151825594840194600190910190840161148d565b50858210156114ca5787850151600019600388901b60f8161c191681555b5050505050600190811b01905550565b6080815260006114ee60808301888a61139e565b828103602084015261150181878961139e565b6001600160401b03959095166040840152505060600152949350505050565b60008161152f5761152f611200565b50600019019056fea2646970667358221220d20cec0309573f26b207cb580515f785c98148b3ba271b128e1a3afb26ef34a664736f6c63430008130033",
  "linkReferences": {},
  "deployedLinkReferences": {}
}